{
  "_format": "hh-sol-artifact-1",
  "contractName": "Transactions",
  "sourceName": "contracts/Transactions.sol",
  "abi": [
    {
      "anonymous": false,
      "inputs": [
        {
          "indexed": false,
          "internalType": "address",
          "name": "from",
          "type": "address"
        },
        {
          "indexed": false,
          "internalType": "address",
          "name": "receiver",
          "type": "address"
        },
        {
          "indexed": false,
          "internalType": "uint256",
          "name": "amount",
          "type": "uint256"
        },
        {
          "indexed": false,
          "internalType": "uint256",
          "name": "timestamp",
          "type": "uint256"
        },
        {
          "indexed": false,
          "internalType": "string",
          "name": "action",
          "type": "string"
        },
        {
          "indexed": false,
          "internalType": "string",
          "name": "planttype",
          "type": "string"
        },
        {
          "indexed": false,
          "internalType": "string",
          "name": "harvest",
          "type": "string"
        },
        {
          "indexed": false,
          "internalType": "string",
          "name": "disease",
          "type": "string"
        },
        {
          "indexed": false,
          "internalType": "string",
          "name": "healthstatus",
          "type": "string"
        },
        {
          "indexed": false,
          "internalType": "string",
          "name": "note",
          "type": "string"
        }
      ],
      "name": "Transfer",
      "type": "event"
    },
    {
      "inputs": [
        {
          "internalType": "address payable",
          "name": "receiver",
          "type": "address"
        },
        {
          "internalType": "uint256",
          "name": "amount",
          "type": "uint256"
        },
        {
          "internalType": "string",
          "name": "action",
          "type": "string"
        },
        {
          "internalType": "string",
          "name": "planttype",
          "type": "string"
        },
        {
          "internalType": "string",
          "name": "harvest",
          "type": "string"
        },
        {
          "internalType": "string",
          "name": "disease",
          "type": "string"
        },
        {
          "internalType": "string",
          "name": "healthstatus",
          "type": "string"
        },
        {
          "internalType": "string",
          "name": "note",
          "type": "string"
        }
      ],
      "name": "addToBlockchain",
      "outputs": [],
      "stateMutability": "nonpayable",
      "type": "function"
    },
    {
      "inputs": [],
      "name": "getAllTransactions",
      "outputs": [
        {
          "components": [
            {
              "internalType": "address",
              "name": "sender",
              "type": "address"
            },
            {
              "internalType": "address",
              "name": "receiver",
              "type": "address"
            },
            {
              "internalType": "uint256",
              "name": "amount",
              "type": "uint256"
            },
            {
              "internalType": "uint256",
              "name": "timestamp",
              "type": "uint256"
            },
            {
              "internalType": "string",
              "name": "action",
              "type": "string"
            },
            {
              "internalType": "string",
              "name": "planttype",
              "type": "string"
            },
            {
              "internalType": "string",
              "name": "harvest",
              "type": "string"
            },
            {
              "internalType": "string",
              "name": "disease",
              "type": "string"
            },
            {
              "internalType": "string",
              "name": "healthstatus",
              "type": "string"
            },
            {
              "internalType": "string",
              "name": "note",
              "type": "string"
            }
          ],
          "internalType": "struct Transactions.TransferStruct[]",
          "name": "",
          "type": "tuple[]"
        }
      ],
      "stateMutability": "view",
      "type": "function"
    },
    {
      "inputs": [],
      "name": "getTransactionCount",
      "outputs": [
        {
          "internalType": "uint256",
          "name": "",
          "type": "uint256"
        }
      ],
      "stateMutability": "view",
      "type": "function"
    }
  ],
  "bytecode": "0x608060405234801561001057600080fd5b50611064806100206000396000f3fe608060405234801561001057600080fd5b50600436106100415760003560e01c806327506f53146100465780632e7700f014610064578063502ce74214610082575b600080fd5b61004e61009e565b60405161005b9190610d10565b60405180910390f35b61006c61052a565b6040516100799190610d32565b60405180910390f35b61009c600480360381019061009791906108c5565b610533565b005b60606001805480602002602001604051908101604052809291908181526020016000905b8282101561052157838290600052602060002090600a0201604051806101400160405290816000820160009054906101000a900473ffffffffffffffffffffffffffffffffffffffff1673ffffffffffffffffffffffffffffffffffffffff1673ffffffffffffffffffffffffffffffffffffffff1681526020016001820160009054906101000a900473ffffffffffffffffffffffffffffffffffffffff1673ffffffffffffffffffffffffffffffffffffffff1673ffffffffffffffffffffffffffffffffffffffff16815260200160028201548152602001600382015481526020016004820180546101b690610f30565b80601f01602080910402602001604051908101604052809291908181526020018280546101e290610f30565b801561022f5780601f106102045761010080835404028352916020019161022f565b820191906000526020600020905b81548152906001019060200180831161021257829003601f168201915b5050505050815260200160058201805461024890610f30565b80601f016020809104026020016040519081016040528092919081815260200182805461027490610f30565b80156102c15780601f10610296576101008083540402835291602001916102c1565b820191906000526020600020905b8154815290600101906020018083116102a457829003601f168201915b505050505081526020016006820180546102da90610f30565b80601f016020809104026020016040519081016040528092919081815260200182805461030690610f30565b80156103535780601f1061032857610100808354040283529160200191610353565b820191906000526020600020905b81548152906001019060200180831161033657829003601f168201915b5050505050815260200160078201805461036c90610f30565b80601f016020809104026020016040519081016040528092919081815260200182805461039890610f30565b80156103e55780601f106103ba576101008083540402835291602001916103e5565b820191906000526020600020905b8154815290600101906020018083116103c857829003601f168201915b505050505081526020016008820180546103fe90610f30565b80601f016020809104026020016040519081016040528092919081815260200182805461042a90610f30565b80156104775780601f1061044c57610100808354040283529160200191610477565b820191906000526020600020905b81548152906001019060200180831161045a57829003601f168201915b5050505050815260200160098201805461049090610f30565b80601f01602080910402602001604051908101604052809291908181526020018280546104bc90610f30565b80156105095780601f106104de57610100808354040283529160200191610509565b820191906000526020600020905b8154815290600101906020018083116104ec57829003601f168201915b505050505081525050815260200190600101906100c2565b50505050905090565b60008054905090565b60016000808282546105459190610e14565b9250508190555060016040518061014001604052803373ffffffffffffffffffffffffffffffffffffffff1681526020018a73ffffffffffffffffffffffffffffffffffffffff1681526020018981526020014281526020018881526020018781526020018681526020018581526020018481526020018381525090806001815401808255809150506001900390600052602060002090600a020160009091909190915060008201518160000160006101000a81548173ffffffffffffffffffffffffffffffffffffffff021916908373ffffffffffffffffffffffffffffffffffffffff16021790555060208201518160010160006101000a81548173ffffffffffffffffffffffffffffffffffffffff021916908373ffffffffffffffffffffffffffffffffffffffff160217905550604082015181600201556060820151816003015560808201518160040190805190602001906106a7929190610790565b5060a08201518160050190805190602001906106c4929190610790565b5060c08201518160060190805190602001906106e1929190610790565b5060e08201518160070190805190602001906106fe929190610790565b5061010082015181600801908051906020019061071c929190610790565b5061012082015181600901908051906020019061073a929190610790565b5050507fd7752df43cc3e8c95352407d4dfb84cba2e3823b5a4d7a26b7163135dba6c14a338989428a8a8a8a8a8a60405161077e9a99989796959493929190610c4a565b60405180910390a15050505050505050565b82805461079c90610f30565b90600052602060002090601f0160209004810192826107be5760008555610805565b82601f106107d757805160ff1916838001178555610805565b82800160010185558215610805579182015b828111156108045782518255916020019190600101906107e9565b5b5090506108129190610816565b5090565b5b8082111561082f576000816000905550600101610817565b5090565b600061084661084184610d7e565b610d4d565b90508281526020810184848401111561085e57600080fd5b610869848285610eee565b509392505050565b60008135905061088081611000565b92915050565b600082601f83011261089757600080fd5b81356108a7848260208601610833565b91505092915050565b6000813590506108bf81611017565b92915050565b600080600080600080600080610100898b0312156108e257600080fd5b60006108f08b828c01610871565b98505060206109018b828c016108b0565b975050604089013567ffffffffffffffff81111561091e57600080fd5b61092a8b828c01610886565b965050606089013567ffffffffffffffff81111561094757600080fd5b6109538b828c01610886565b955050608089013567ffffffffffffffff81111561097057600080fd5b61097c8b828c01610886565b94505060a089013567ffffffffffffffff81111561099957600080fd5b6109a58b828c01610886565b93505060c089013567ffffffffffffffff8111156109c257600080fd5b6109ce8b828c01610886565b92505060e089013567ffffffffffffffff8111156109eb57600080fd5b6109f78b828c01610886565b9150509295985092959890939650565b6000610a138383610b2f565b905092915050565b610a2481610eb8565b82525050565b610a3381610e6a565b82525050565b610a4281610e6a565b82525050565b6000610a5382610dbe565b610a5d8185610de1565b935083602082028501610a6f85610dae565b8060005b85811015610aab5784840389528151610a8c8582610a07565b9450610a9783610dd4565b925060208a01995050600181019050610a73565b50829750879550505050505092915050565b6000610ac882610dc9565b610ad28185610df2565b9350610ae2818560208601610efd565b610aeb81610fef565b840191505092915050565b6000610b0182610dc9565b610b0b8185610e03565b9350610b1b818560208601610efd565b610b2481610fef565b840191505092915050565b600061014083016000830151610b486000860182610a2a565b506020830151610b5b6020860182610a2a565b506040830151610b6e6040860182610c2c565b506060830151610b816060860182610c2c565b5060808301518482036080860152610b998282610abd565b91505060a083015184820360a0860152610bb38282610abd565b91505060c083015184820360c0860152610bcd8282610abd565b91505060e083015184820360e0860152610be78282610abd565b915050610100830151848203610100860152610c038282610abd565b915050610120830151848203610120860152610c1f8282610abd565b9150508091505092915050565b610c3581610eae565b82525050565b610c4481610eae565b82525050565b600061014082019050610c60600083018d610a39565b610c6d602083018c610a1b565b610c7a604083018b610c3b565b610c87606083018a610c3b565b8181036080830152610c998189610af6565b905081810360a0830152610cad8188610af6565b905081810360c0830152610cc18187610af6565b905081810360e0830152610cd58186610af6565b9050818103610100830152610cea8185610af6565b9050818103610120830152610cff8184610af6565b90509b9a5050505050505050505050565b60006020820190508181036000830152610d2a8184610a48565b905092915050565b6000602082019050610d476000830184610c3b565b92915050565b6000604051905081810181811067ffffffffffffffff82111715610d7457610d73610fc0565b5b8060405250919050565b600067ffffffffffffffff821115610d9957610d98610fc0565b5b601f19601f8301169050602081019050919050565b6000819050602082019050919050565b600081519050919050565b600081519050919050565b6000602082019050919050565b600082825260208201905092915050565b600082825260208201905092915050565b600082825260208201905092915050565b6000610e1f82610eae565b9150610e2a83610eae565b9250827fffffffffffffffffffffffffffffffffffffffffffffffffffffffffffffffff03821115610e5f57610e5e610f62565b5b828201905092915050565b6000610e7582610e8e565b9050919050565b6000610e8782610e8e565b9050919050565b600073ffffffffffffffffffffffffffffffffffffffff82169050919050565b6000819050919050565b6000610ec382610eca565b9050919050565b6000610ed582610edc565b9050919050565b6000610ee782610e8e565b9050919050565b82818337600083830152505050565b60005b83811015610f1b578082015181840152602081019050610f00565b83811115610f2a576000848401525b50505050565b60006002820490506001821680610f4857607f821691505b60208210811415610f5c57610f5b610f91565b5b50919050565b7f4e487b7100000000000000000000000000000000000000000000000000000000600052601160045260246000fd5b7f4e487b7100000000000000000000000000000000000000000000000000000000600052602260045260246000fd5b7f4e487b7100000000000000000000000000000000000000000000000000000000600052604160045260246000fd5b6000601f19601f8301169050919050565b61100981610e7c565b811461101457600080fd5b50565b61102081610eae565b811461102b57600080fd5b5056fea264697066735822122022bf2ba5efb380e252d5bf884555e1bf79b19f3925160d7504f94a14cff47fcf64736f6c63430008000033",
  "linkReferences": {},
  "deployedLinkReferences": {}
}